{
  "contractName": "incedo",
  "abi": [
    {
      "constant": false,
      "inputs": [
        {
          "name": "Uname",
          "type": "string"
        },
        {
          "name": "bankAddress",
          "type": "address"
        }
      ],
      "name": "ifAllowed",
      "outputs": [
        {
          "name": "",
          "type": "bool"
        }
      ],
      "payable": true,
      "stateMutability": "payable",
      "type": "function"
    },
    {
      "constant": false,
      "inputs": [
        {
          "name": "Uname",
          "type": "string"
        },
        {
          "name": "ind",
          "type": "uint256"
        }
      ],
      "name": "getBankRequests",
      "outputs": [
        {
          "name": "",
          "type": "address"
        }
      ],
      "payable": true,
      "stateMutability": "payable",
      "type": "function"
    },
    {
      "constant": false,
      "inputs": [
        {
          "name": "Uname",
          "type": "string"
        },
        {
          "name": "bankAddress",
          "type": "address"
        }
      ],
      "name": "addRequest",
      "outputs": [],
      "payable": true,
      "stateMutability": "payable",
      "type": "function"
    },
    {
      "constant": false,
      "inputs": [
        {
          "name": "Uname",
          "type": "string"
        },
        {
          "name": "bankAddress",
          "type": "address"
        },
        {
          "name": "ifallowed",
          "type": "bool"
        }
      ],
      "name": "allowBank",
      "outputs": [],
      "payable": true,
      "stateMutability": "payable",
      "type": "function"
    },
    {
      "constant": false,
      "inputs": [
        {
          "name": "uname",
          "type": "string"
        },
        {
          "name": "eth",
          "type": "address"
        },
        {
          "name": "regNum",
          "type": "string"
        }
      ],
      "name": "addBank",
      "outputs": [
        {
          "name": "",
          "type": "uint256"
        }
      ],
      "payable": true,
      "stateMutability": "payable",
      "type": "function"
    },
    {
      "constant": false,
      "inputs": [
        {
          "name": "eth",
          "type": "address"
        }
      ],
      "name": "removeBank",
      "outputs": [
        {
          "name": "",
          "type": "uint256"
        }
      ],
      "payable": true,
      "stateMutability": "payable",
      "type": "function"
    },
    {
      "constant": false,
      "inputs": [
        {
          "name": "Uname",
          "type": "string"
        },
        {
          "name": "DataHash",
          "type": "string"
        }
      ],
      "name": "addCustomer",
      "outputs": [
        {
          "name": "",
          "type": "uint256"
        }
      ],
      "payable": true,
      "stateMutability": "payable",
      "type": "function"
    },
    {
      "constant": false,
      "inputs": [
        {
          "name": "Uname",
          "type": "string"
        }
      ],
      "name": "removeCustomer",
      "outputs": [
        {
          "name": "",
          "type": "uint256"
        }
      ],
      "payable": true,
      "stateMutability": "payable",
      "type": "function"
    },
    {
      "constant": false,
      "inputs": [
        {
          "name": "Uname",
          "type": "string"
        },
        {
          "name": "DataHash",
          "type": "string"
        }
      ],
      "name": "modifyCustomer",
      "outputs": [
        {
          "name": "",
          "type": "uint256"
        }
      ],
      "payable": true,
      "stateMutability": "payable",
      "type": "function"
    },
    {
      "constant": false,
      "inputs": [
        {
          "name": "Uname",
          "type": "string"
        }
      ],
      "name": "viewCustomer",
      "outputs": [
        {
          "name": "",
          "type": "string"
        }
      ],
      "payable": true,
      "stateMutability": "payable",
      "type": "function"
    },
    {
      "constant": false,
      "inputs": [
        {
          "name": "Uname",
          "type": "string"
        },
        {
          "name": "ifIncrease",
          "type": "bool"
        }
      ],
      "name": "updateRatingCustomer",
      "outputs": [
        {
          "name": "",
          "type": "uint256"
        }
      ],
      "payable": true,
      "stateMutability": "payable",
      "type": "function"
    },
    {
      "constant": false,
      "inputs": [
        {
          "name": "bankAddress",
          "type": "address"
        },
        {
          "name": "ifAdded",
          "type": "bool"
        }
      ],
      "name": "updateRating",
      "outputs": [
        {
          "name": "",
          "type": "uint256"
        }
      ],
      "payable": true,
      "stateMutability": "payable",
      "type": "function"
    },
    {
      "constant": false,
      "inputs": [
        {
          "name": "Uname",
          "type": "string"
        },
        {
          "name": "password",
          "type": "address"
        }
      ],
      "name": "checkBank",
      "outputs": [
        {
          "name": "",
          "type": "string"
        }
      ],
      "payable": true,
      "stateMutability": "payable",
      "type": "function"
    },
    {
      "constant": false,
      "inputs": [
        {
          "name": "Uname",
          "type": "string"
        },
        {
          "name": "password",
          "type": "string"
        }
      ],
      "name": "checkCustomer",
      "outputs": [
        {
          "name": "",
          "type": "bool"
        }
      ],
      "payable": true,
      "stateMutability": "payable",
      "type": "function"
    },
    {
      "constant": false,
      "inputs": [
        {
          "name": "Uname",
          "type": "string"
        },
        {
          "name": "password",
          "type": "string"
        }
      ],
      "name": "setPassword",
      "outputs": [
        {
          "name": "",
          "type": "bool"
        }
      ],
      "payable": true,
      "stateMutability": "payable",
      "type": "function"
    },
    {
      "constant": false,
      "inputs": [
        {
          "name": "ethAcc",
          "type": "address"
        }
      ],
      "name": "getBankName",
      "outputs": [
        {
          "name": "",
          "type": "string"
        }
      ],
      "payable": true,
      "stateMutability": "payable",
      "type": "function"
    },
    {
      "constant": false,
      "inputs": [
        {
          "name": "uname",
          "type": "string"
        }
      ],
      "name": "getBankEth",
      "outputs": [
        {
          "name": "",
          "type": "address"
        }
      ],
      "payable": true,
      "stateMutability": "payable",
      "type": "function"
    },
    {
      "constant": false,
      "inputs": [
        {
          "name": "Uname",
          "type": "string"
        }
      ],
      "name": "getCustomerBankName",
      "outputs": [
        {
          "name": "",
          "type": "string"
        }
      ],
      "payable": true,
      "stateMutability": "payable",
      "type": "function"
    },
    {
      "constant": false,
      "inputs": [
        {
          "name": "ethAcc",
          "type": "address"
        }
      ],
      "name": "getBankReg",
      "outputs": [
        {
          "name": "",
          "type": "string"
        }
      ],
      "payable": true,
      "stateMutability": "payable",
      "type": "function"
    },
    {
      "constant": false,
      "inputs": [
        {
          "name": "ethAcc",
          "type": "address"
        }
      ],
      "name": "getBankKYC",
      "outputs": [
        {
          "name": "",
          "type": "uint256"
        }
      ],
      "payable": true,
      "stateMutability": "payable",
      "type": "function"
    },
    {
      "constant": false,
      "inputs": [
        {
          "name": "ethAcc",
          "type": "address"
        }
      ],
      "name": "getBankRating",
      "outputs": [
        {
          "name": "",
          "type": "uint256"
        }
      ],
      "payable": true,
      "stateMutability": "payable",
      "type": "function"
    },
    {
      "constant": false,
      "inputs": [
        {
          "name": "Uname",
          "type": "string"
        }
      ],
      "name": "getCustomerBankRating",
      "outputs": [
        {
          "name": "",
          "type": "uint256"
        }
      ],
      "payable": true,
      "stateMutability": "payable",
      "type": "function"
    },
    {
      "constant": false,
      "inputs": [
        {
          "name": "Uname",
          "type": "string"
        }
      ],
      "name": "getCustomerRating",
      "outputs": [
        {
          "name": "",
          "type": "uint256"
        }
      ],
      "payable": true,
      "stateMutability": "payable",
      "type": "function"
    }
  ],
  "bytecode": "0x6060604052341561000f57600080fd5b61313a8061001e6000396000f300606060405260043610610133576000357c0100000000000000000000000000000000000000000000000000000000900463ffffffff16806301da7b3114610138578063107925bb146101df5780631cfb7c9a146102aa5780633190abc01461033357806339b83b68146103dc5780634b726f61146104585780634ec2b417146105055780635b3de1c8146105475780637d2f42c3146105d95780638873704c146106265780638eafe0f0146106975780639649650c146106fd5780639ac3fce61461073f578063b8144a72146107e6578063bbd4edb114610828578063c17d872014610899578063c71029e114610983578063ca38649614610a1e578063ccfa8e7114610acb578063e979bac114610b93578063f72860ca14610bf9578063f9dc079314610ca2578063fc55ea9d14610d6d575b600080fd5b610164600480803573ffffffffffffffffffffffffffffffffffffffff16906020019091905050610dd3565b6040518080602001828103825283818151815260200191508051906020019080838360005b838110156101a4578082015181840152602081019050610189565b50505050905090810190601f1680156101d15780820380516001836020036101000a031916815260200191505b509250505060405180910390f35b61022f600480803590602001908201803590602001908080601f01602080910402602001604051908101604052809392919081815260200183838082843782019150505050505091905050610f6c565b6040518080602001828103825283818151815260200191508051906020019080838360005b8381101561026f578082015181840152602081019050610254565b50505050905090810190601f16801561029c5780820380516001836020036101000a031916815260200191505b509250505060405180910390f35b610319600480803590602001908201803590602001908080601f0160208091040260200160405190810160405280939291908181526020018383808284378201915050505050509190803573ffffffffffffffffffffffffffffffffffffffff169060200190919050506110bf565b604051808215151515815260200191505060405180910390f35b6103c6600480803590602001908201803590602001908080601f0160208091040260200160405190810160405280939291908181526020018383808284378201915050505050509190803590602001908201803590602001908080601f016020809104026020016040519081016040528093929190818152602001838380828437820191505050505050919050506111cf565b6040518082815260200191505060405180910390f35b610456600480803590602001908201803590602001908080601f0160208091040260200160405190810160405280939291908181526020018383808284378201915050505050509190803573ffffffffffffffffffffffffffffffffffffffff1690602001909190803515159060200190919050506113bf565b005b6104eb600480803590602001908201803590602001908080601f0160208091040260200160405190810160405280939291908181526020018383808284378201915050505050509190803590602001908201803590602001908080601f01602080910402602001604051908101604052809392919081815260200183838082843782019150505050505091905050611606565b604051808215151515815260200191505060405180910390f35b610531600480803573ffffffffffffffffffffffffffffffffffffffff169060200190919050506116d1565b6040518082815260200191505060405180910390f35b610597600480803590602001908201803590602001908080601f01602080910402602001604051908101604052809392919081815260200183838082843782019150505050505091905050611798565b604051808273ffffffffffffffffffffffffffffffffffffffff1673ffffffffffffffffffffffffffffffffffffffff16815260200191505060405180910390f35b610610600480803573ffffffffffffffffffffffffffffffffffffffff169060200190919080351515906020019091905050611839565b6040518082815260200191505060405180910390f35b610695600480803590602001908201803590602001908080601f0160208091040260200160405190810160405280939291908181526020018383808284378201915050505050509190803573ffffffffffffffffffffffffffffffffffffffff16906020019091905050611a76565b005b6106e7600480803590602001908201803590602001908080601f01602080910402602001604051908101604052809392919081815260200183838082843782019150505050505091905050611ba5565b6040518082815260200191505060405180910390f35b610729600480803573ffffffffffffffffffffffffffffffffffffffff16906020019091905050611c26565b6040518082815260200191505060405180910390f35b61076b600480803573ffffffffffffffffffffffffffffffffffffffff16906020019091905050611e0f565b6040518080602001828103825283818151815260200191508051906020019080838360005b838110156107ab578082015181840152602081019050610790565b50505050905090810190601f1680156107d85780820380516001836020036101000a031916815260200191505b509250505060405180910390f35b610812600480803573ffffffffffffffffffffffffffffffffffffffff16906020019091905050611fa8565b6040518082815260200191505060405180910390f35b610883600480803590602001908201803590602001908080601f01602080910402602001604051908101604052809392919081815260200183838082843782019150505050505091908035151590602001909190505061206f565b6040518082815260200191505060405180910390f35b610908600480803590602001908201803590602001908080601f0160208091040260200160405190810160405280939291908181526020018383808284378201915050505050509190803573ffffffffffffffffffffffffffffffffffffffff16906020019091905050612296565b6040518080602001828103825283818151815260200191508051906020019080838360005b8381101561094857808201518184015260208101905061092d565b50505050905090810190601f1680156109755780820380516001836020036101000a031916815260200191505b509250505060405180910390f35b6109dc600480803590602001908201803590602001908080601f016020809104026020016040519081016040528093929190818152602001838380828437820191505050505050919080359060200190919050506123de565b604051808273ffffffffffffffffffffffffffffffffffffffff1673ffffffffffffffffffffffffffffffffffffffff16815260200191505060405180910390f35b610ab1600480803590602001908201803590602001908080601f0160208091040260200160405190810160405280939291908181526020018383808284378201915050505050509190803590602001908201803590602001908080601f016020809104026020016040519081016040528093929190818152602001838380828437820191505050505050919050506124d6565b604051808215151515815260200191505060405180910390f35b610b7d600480803590602001908201803590602001908080601f0160208091040260200160405190810160405280939291908181526020018383808284378201915050505050509190803573ffffffffffffffffffffffffffffffffffffffff1690602001909190803590602001908201803590602001908080601f016020809104026020016040519081016040528093929190818152602001838380828437820191505050505050919050506125d4565b6040518082815260200191505060405180910390f35b610be3600480803590602001908201803590602001908080601f01602080910402602001604051908101604052809392919081815260200183838082843782019150505050505091905050612708565b6040518082815260200191505060405180910390f35b610c8c600480803590602001908201803590602001908080601f0160208091040260200160405190810160405280939291908181526020018383808284378201915050505050509190803590602001908201803590602001908080601f016020809104026020016040519081016040528093929190818152602001838380828437820191505050505050919050506127ad565b6040518082815260200191505060405180910390f35b610cf2600480803590602001908201803590602001908080601f016020809104026020016040519081016040528093929190818152602001838380828437820191505050505050919050506128a4565b6040518080602001828103825283818151815260200191508051906020019080838360005b83811015610d32578082015181840152602081019050610d17565b50505050905090810190601f168015610d5f5780820380516001836020036101000a031916815260200191505b509250505060405180910390f35b610dbd600480803590602001908201803590602001908080601f0160208091040260200160405190810160405280939291908181526020018383808284378201915050505050509190505061294f565b6040518082815260200191505060405180910390f35b610ddb612cf6565b60008090505b600180549050811015610f2d578273ffffffffffffffffffffffffffffffffffffffff16600182815481101515610e1457fe5b906000526020600020906005020160010160009054906101000a900473ffffffffffffffffffffffffffffffffffffffff1673ffffffffffffffffffffffffffffffffffffffff161415610f2257600181815481101515610e7157fe5b90600052602060002090600502016000018054600181600116156101000203166002900480601f016020809104026020016040519081016040528092919081815260200182805460018160011615610100020316600290048015610f165780601f10610eeb57610100808354040283529160200191610f16565b820191906000526020600020905b815481529060010190602001808311610ef957829003601f168201915b50505050509150610f66565b806001019050610de1565b6040805190810160405280600481526020017f6e756c6c0000000000000000000000000000000000000000000000000000000081525091505b50919050565b610f74612cf6565b60008090505b60008054905081101561108057610fb0600082815481101515610f9957fe5b906000526020600020906006020160000184612b6d565b1561107557600081815481101515610fc457fe5b90600052602060002090600602016001018054600181600116156101000203166002900480601f0160208091040260200160405190810160405280929190818152602001828054600181600116156101000203166002900480156110695780601f1061103e57610100808354040283529160200191611069565b820191906000526020600020905b81548152906001019060200180831161104c57829003601f168201915b505050505091506110b9565b806001019050610f7a565b6040805190810160405280601f81526020017f437573746f6d6572206e6f7420666f756e6420696e206461746162617365210081525091505b50919050565b600080600090505b6002805490508110156111c3576110fd6002828154811015156110e657fe5b906000526020600020906002020160000185612b6d565b801561117457508273ffffffffffffffffffffffffffffffffffffffff1660028281548110151561112a57fe5b906000526020600020906002020160010160009054906101000a900473ffffffffffffffffffffffffffffffffffffffff1673ffffffffffffffffffffffffffffffffffffffff16145b80156111aa575060028181548110151561118a57fe5b906000526020600020906002020160010160149054906101000a900460ff165b156111b857600191506111c8565b8060010190506110c7565b600091505b5092915050565b600080600090505b6000805490508110156112265761120d6000828154811015156111f657fe5b906000526020600020906006020160000185612b6d565b1561121b57600291506113b8565b8060010190506111d7565b6000805480919060010161123a9190612d0a565b506001600080549050101561125257600191506113b8565b60c06040519081016040528085815260200184815260200160648152602001600081526020013373ffffffffffffffffffffffffffffffffffffffff1681526020016040805190810160405280600481526020017f6e756c6c0000000000000000000000000000000000000000000000000000000081525081525060006001600080549050038154811015156112e457fe5b9060005260206000209060060201600082015181600001908051906020019061130e929190612d3c565b50602082015181600101908051906020019061132b929190612d3c565b50604082015181600201556060820151816003015560808201518160040160006101000a81548173ffffffffffffffffffffffffffffffffffffffff021916908373ffffffffffffffffffffffffffffffffffffffff16021790555060a08201518160050190805190602001906113a3929190612d3c565b509050506113b2336001611839565b50600091505b5092915050565b600080600091505b6002805490508210156115fe576113fd6002838154811015156113e657fe5b906000526020600020906002020160000186612b6d565b801561147457508373ffffffffffffffffffffffffffffffffffffffff1660028381548110151561142a57fe5b906000526020600020906002020160010160009054906101000a900473ffffffffffffffffffffffffffffffffffffffff1673ffffffffffffffffffffffffffffffffffffffff16145b156115f35782156114bd57600160028381548110151561149057fe5b906000526020600020906002020160010160146101000a81548160ff0219169083151502179055506115ee565b8190505b60028080549050038110156115d7576002600183018154811015156114e257fe5b90600052602060002090600202016002838154811015156114ff57fe5b906000526020600020906002020160008201816000019080546001816001161561010002031660029004611534929190612dbc565b506001820160009054906101000a900473ffffffffffffffffffffffffffffffffffffffff168160010160006101000a81548173ffffffffffffffffffffffffffffffffffffffff021916908373ffffffffffffffffffffffffffffffffffffffff1602179055506001820160149054906101000a900460ff168160010160146101000a81548160ff0219169083151502179055509050508060010190506114c1565b60028054809190600190036115ec9190612e43565b505b6115ff565b8160010191506113c7565b5b5050505050565b600080600090505b6000805490508110156116c55761164460008281548110151561162d57fe5b906000526020600020906006020160000185612b6d565b8015611675575061167460008281548110151561165d57fe5b906000526020600020906006020160050184612b6d565b5b1561168357600191506116ca565b6116ac60008281548110151561169557fe5b906000526020600020906006020160000185612b6d565b156116ba57600091506116ca565b80600101905061160e565b600091505b5092915050565b600080600090505b60018054905081101561178d578273ffffffffffffffffffffffffffffffffffffffff1660018281548110151561170c57fe5b906000526020600020906005020160010160009054906101000a900473ffffffffffffffffffffffffffffffffffffffff1673ffffffffffffffffffffffffffffffffffffffff1614156117825760018181548110151561176957fe5b9060005260206000209060050201600301549150611792565b8060010190506116d9565b600091505b50919050565b600080600090505b60018054905081101561182e576117d66001828154811015156117bf57fe5b906000526020600020906005020160000184612b6d565b15611823576001818154811015156117ea57fe5b906000526020600020906005020160010160009054906101000a900473ffffffffffffffffffffffffffffffffffffffff169150611833565b8060010190506117a0565b600091505b50919050565b600080600090505b600180549050811015611a6a578373ffffffffffffffffffffffffffffffffffffffff1660018281548110151561187457fe5b906000526020600020906005020160010160009054906101000a900473ffffffffffffffffffffffffffffffffffffffff1673ffffffffffffffffffffffffffffffffffffffff161415611a5f5782156119a9576001818154811015156118d757fe5b90600052602060002090600502016003016000815480929190600101919050555060018181548110151561190757fe5b906000526020600020906005020160030154606481151561192457fe5b0460018281548110151561193457fe5b9060005260206000209060050201600201600082825401925050819055506101f460018281548110151561196457fe5b90600052602060002090600502016002015411156119a4576101f460018281548110151561198e57fe5b9060005260206000209060050201600201819055505b611a56565b600180828154811015156119b957fe5b9060005260206000209060050201600301540160648115156119d757fe5b046001828154811015156119e757fe5b9060005260206000209060050201600201600082825403925050819055506000600182815481101515611a1657fe5b9060005260206000209060050201600201541015611a55576000600182815481101515611a3f57fe5b9060005260206000209060050201600201819055505b5b60009150611a6f565b806001019050611841565b600191505b5092915050565b60008090505b600280549050811015611aaa576002805480919060019003611a9e9190612e43565b50806001019050611a7c565b60028054809190600101611abe9190612e43565b506060604051908101604052808481526020018373ffffffffffffffffffffffffffffffffffffffff168152602001600015158152506002600160028054905003815481101515611b0b57fe5b90600052602060002090600202016000820151816000019080519060200190611b35929190612d3c565b5060208201518160010160006101000a81548173ffffffffffffffffffffffffffffffffffffffff021916908373ffffffffffffffffffffffffffffffffffffffff16021790555060408201518160010160146101000a81548160ff021916908315150217905550905050505050565b600080600090505b600080549050811015611c1b57611be3600082815481101515611bcc57fe5b906000526020600020906006020160000184612b6d565b15611c1057600081815481101515611bf757fe5b9060005260206000209060060201600201549150611c20565b806001019050611bad565b600091505b50919050565b60008060008091505b600180549050821015611e03578373ffffffffffffffffffffffffffffffffffffffff16600183815481101515611c6257fe5b906000526020600020906005020160010160009054906101000a900473ffffffffffffffffffffffffffffffffffffffff1673ffffffffffffffffffffffffffffffffffffffff161415611df8576001820190505b600180549050811015611dd957600182815481101515611cd357fe5b90600052602060002090600502016001808403815481101515611cf257fe5b906000526020600020906005020160008201816000019080546001816001161561010002031660029004611d27929190612dbc565b506001820160009054906101000a900473ffffffffffffffffffffffffffffffffffffffff168160010160006101000a81548173ffffffffffffffffffffffffffffffffffffffff021916908373ffffffffffffffffffffffffffffffffffffffff160217905550600282015481600201556003820154816003015560048201816004019080546001816001161561010002031660029004611dca929190612dbc565b50905050806001019050611cb7565b6001805480919060019003611dee9190612e75565b5060009250611e08565b816001019150611c2f565b600192505b5050919050565b611e17612cf6565b60008090505b600180549050811015611f69578273ffffffffffffffffffffffffffffffffffffffff16600182815481101515611e5057fe5b906000526020600020906005020160010160009054906101000a900473ffffffffffffffffffffffffffffffffffffffff1673ffffffffffffffffffffffffffffffffffffffff161415611f5e57600181815481101515611ead57fe5b90600052602060002090600502016004018054600181600116156101000203166002900480601f016020809104026020016040519081016040528092919081815260200182805460018160011615610100020316600290048015611f525780601f10611f2757610100808354040283529160200191611f52565b820191906000526020600020905b815481529060010190602001808311611f3557829003601f168201915b50505050509150611fa2565b806001019050611e1d565b6040805190810160405280600481526020017f6e756c6c0000000000000000000000000000000000000000000000000000000081525091505b50919050565b600080600090505b600180549050811015612064578273ffffffffffffffffffffffffffffffffffffffff16600182815481101515611fe357fe5b906000526020600020906005020160010160009054906101000a900473ffffffffffffffffffffffffffffffffffffffff1673ffffffffffffffffffffffffffffffffffffffff1614156120595760018181548110151561204057fe5b9060005260206000209060050201600201549150612069565b806001019050611fb0565b600091505b50919050565b600080600090505b60008054905081101561228a576120ad60008281548110151561209657fe5b906000526020600020906006020160000185612b6d565b1561227f578215612199576000818154811015156120c757fe5b9060005260206000209060060201600301600081548092919060010191905055506000818154811015156120f757fe5b906000526020600020906006020160030154606481151561211457fe5b0460008281548110151561212457fe5b9060005260206000209060060201600201600082825401925050819055506101f460008281548110151561215457fe5b9060005260206000209060060201600201541115612194576101f460008281548110151561217e57fe5b9060005260206000209060060201600201819055505b612276565b6000818154811015156121a857fe5b9060005260206000209060060201600301600081548092919060019003919050555060016000828154811015156121db57fe5b9060005260206000209060060201600301540160648115156121f957fe5b0460008281548110151561220957fe5b9060005260206000209060060201600201600082825403925050819055506000808281548110151561223757fe5b9060005260206000209060060201600201541015612275576000808281548110151561225f57fe5b9060005260206000209060060201600201819055505b5b6000915061228f565b806001019050612077565b600191505b5092915050565b61229e612cf6565b60008090505b60018054905081101561239e578273ffffffffffffffffffffffffffffffffffffffff166001828154811015156122d757fe5b906000526020600020906005020160010160009054906101000a900473ffffffffffffffffffffffffffffffffffffffff1673ffffffffffffffffffffffffffffffffffffffff16148015612351575061235060018281548110151561233957fe5b906000526020600020906005020160000185612b6d565b5b15612393576040805190810160405280600181526020017f300000000000000000000000000000000000000000000000000000000000000081525091506123d7565b8060010190506122a4565b6040805190810160405280600481526020017f6e756c6c0000000000000000000000000000000000000000000000000000000081525091505b5092915050565b6000806000809150600090505b6002805490508110156124c95761242160028281548110151561240a57fe5b906000526020600020906002020160000186612b6d565b801561242c57508382145b801561246957506000151560028281548110151561244657fe5b906000526020600020906002020160010160149054906101000a900460ff161515145b156124b65760028181548110151561247d57fe5b906000526020600020906002020160010160009054906101000a900473ffffffffffffffffffffffffffffffffffffffff1692506124ce565b81806001019250508060010190506123eb565b600092505b505092915050565b600080600090505b6000805490508110156125c8576125146000828154811015156124fd57fe5b906000526020600020906006020160000185612b6d565b801561257a575061257960008281548110151561252d57fe5b90600052602060002090600602016005016040805190810160405280600481526020017f6e756c6c00000000000000000000000000000000000000000000000000000000815250612b6d565b5b156125bd578260008281548110151561258f57fe5b906000526020600020906006020160050190805190602001906125b3929190612ea7565b50600191506125cd565b8060010190506124de565b600091505b5092915050565b60008060018054905014156126fc57600180548091906001016125f79190612e75565b5060a0604051908101604052808581526020018473ffffffffffffffffffffffffffffffffffffffff16815260200160c88152602001600081526020018381525060018080805490500381548110151561264d57fe5b90600052602060002090600502016000820151816000019080519060200190612677929190612d3c565b5060208201518160010160006101000a81548173ffffffffffffffffffffffffffffffffffffffff021916908373ffffffffffffffffffffffffffffffffffffffff160217905550604082015181600201556060820151816003015560808201518160040190805190602001906126ef929190612d3c565b5090505060009050612701565b600790505b9392505050565b600080600090505b6000805490508110156127a65761274660008281548110151561272f57fe5b906000526020600020906006020160000184612b6d565b1561279b5761279460008281548110151561275d57fe5b906000526020600020906006020160040160009054906101000a900473ffffffffffffffffffffffffffffffffffffffff16611fa8565b91506127a7565b806001019050612710565b5b50919050565b600080600090505b600080549050811015612898576127eb6000828154811015156127d457fe5b906000526020600020906006020160000185612b6d565b1561288d578260008281548110151561280057fe5b90600052602060002090600602016001019080519060200190612824929190612ea7565b503360008281548110151561283557fe5b906000526020600020906006020160040160006101000a81548173ffffffffffffffffffffffffffffffffffffffff021916908373ffffffffffffffffffffffffffffffffffffffff1602179055506000915061289d565b8060010190506127b5565b600191505b5092915050565b6128ac612cf6565b60008090505b600080549050811015612948576128e86000828154811015156128d157fe5b906000526020600020906006020160000184612b6d565b1561293d576129366000828154811015156128ff57fe5b906000526020600020906006020160040160009054906101000a900473ffffffffffffffffffffffffffffffffffffffff16610dd3565b9150612949565b8060010190506128b2565b5b50919050565b600080600080600092505b600080549050831015612b605761299060008481548110151561297957fe5b906000526020600020906006020160000186612b6d565b15612b55576000838154811015156129a457fe5b906000526020600020906006020160040160009054906101000a900473ffffffffffffffffffffffffffffffffffffffff1691506001830190505b600080549050811015612b2a576000838154811015156129fb57fe5b9060005260206000209060060201600060018503815481101515612a1b57fe5b906000526020600020906006020160008201816000019080546001816001161561010002031660029004612a50929190612dbc565b5060018201816001019080546001816001161561010002031660029004612a78929190612dbc565b5060028201548160020155600382015481600301556004820160009054906101000a900473ffffffffffffffffffffffffffffffffffffffff168160040160006101000a81548173ffffffffffffffffffffffffffffffffffffffff021916908373ffffffffffffffffffffffffffffffffffffffff16021790555060058201816005019080546001816001161561010002031660029004612b1b929190612dbc565b509050508060010190506129df565b6000805480919060019003612b3f9190612d0a565b50612b4b826000611839565b5060009350612b65565b82600101925061295a565b600193505b505050919050565b600080612b78612f27565b6000859250849150815183805460018160011615610100020316600290049050141515612ba85760009350612ced565b600090505b82805460018160011615610100020316600290049050811015612ce8578181815181101515612bd857fe5b9060200101517f010000000000000000000000000000000000000000000000000000000000000090047f0100000000000000000000000000000000000000000000000000000000000000027effffffffffffffffffffffffffffffffffffffffffffffffffffffffffffff191683828154600181600116156101000203166002900481101515612c6457fe5b815460011615612c835790600052602060002090602091828204019190065b9054901a7f0100000000000000000000000000000000000000000000000000000000000000027effffffffffffffffffffffffffffffffffffffffffffffffffffffffffffff1916141515612cdb5760009350612ced565b8080600101915050612bad565b600193505b50505092915050565b602060405190810160405280600081525090565b815481835581811511612d3757600602816006028360005260206000209182019101612d369190612f3b565b5b505050565b828054600181600116156101000203166002900490600052602060002090601f016020900481019282601f10612d7d57805160ff1916838001178555612dab565b82800160010185558215612dab579182015b82811115612daa578251825591602001919060010190612d8f565b5b509050612db89190612fc1565b5090565b828054600181600116156101000203166002900490600052602060002090601f016020900481019282601f10612df55780548555612e32565b82800160010185558215612e3257600052602060002091601f016020900482015b82811115612e31578254825591600101919060010190612e16565b5b509050612e3f9190612fc1565b5090565b815481835581811511612e7057600202816002028360005260206000209182019101612e6f9190612fe6565b5b505050565b815481835581811511612ea257600502816005028360005260206000209182019101612ea19190613050565b5b505050565b828054600181600116156101000203166002900490600052602060002090601f016020900481019282601f10612ee857805160ff1916838001178555612f16565b82800160010185558215612f16579182015b82811115612f15578251825591602001919060010190612efa565b5b509050612f239190612fc1565b5090565b602060405190810160405280600081525090565b612fbe91905b80821115612fba5760008082016000612f5a91906130c6565b600182016000612f6a91906130c6565b600282016000905560038201600090556004820160006101000a81549073ffffffffffffffffffffffffffffffffffffffff0219169055600582016000612fb191906130c6565b50600601612f41565b5090565b90565b612fe391905b80821115612fdf576000816000905550600101612fc7565b5090565b90565b61304d91905b80821115613049576000808201600061300591906130c6565b6001820160006101000a81549073ffffffffffffffffffffffffffffffffffffffff02191690556001820160146101000a81549060ff021916905550600201612fec565b5090565b90565b6130c391905b808211156130bf576000808201600061306f91906130c6565b6001820160006101000a81549073ffffffffffffffffffffffffffffffffffffffff0219169055600282016000905560038201600090556004820160006130b691906130c6565b50600501613056565b5090565b90565b50805460018160011615610100020316600290046000825580601f106130ec575061310b565b601f01602090049060005260206000209081019061310a9190612fc1565b5b505600a165627a7a723058209bdcb2e2fdac2238edb76ca99e4d4ef6c4729d1f89504a1cbdd2dca3f8f2e7680029",
  "source": "\r\npragma solidity ^0.4.4;\r\ncontract incedo { \r\n\r\n    //  Struct customer\r\n    //  uname - username of the customer\r\n    //  dataHash - customer data\r\n    //  rating - rating given to customer given based on regularity\r\n    //  upvotes - number of upvotes recieved from banks\r\n    //  bank - address of bank that validated the customer account\r\n\r\n    struct Customer {\r\n        string uname;\r\n        string dataHash; \r\n        uint rating;\r\n        uint upvotes;\r\n        address bank;\r\n        string password;\r\n    }\r\n\r\n    //  Struct Organisation\r\n    //  name - name of the bank/organisation\r\n    //  ethAddress - ethereum address of the bank/organisation\r\n    //  rating - rating based on number of valid/invalid verified accounts\r\n    //  KYC_count - number of KYCs verified by the bank/organisation\r\n\r\n    struct Organisation {\r\n        string name;\r\n        address ethAddress;\r\n        uint rating;\r\n        uint KYC_count;\r\n        string regNumber;\r\n    }\r\n\r\n    struct Request {\r\n        string uname;\r\n        address bankAddress;\r\n        bool isAllowed;\r\n    }\r\n\r\n    //  list of all customers\r\n\r\n    Customer[] allCustomers;\r\n\r\n    //  list of all Banks/Organisations\r\n\r\n    Organisation[] allOrgs;\r\n\r\n\r\n    Request[] allRequests;\r\n\r\n    function ifAllowed(string Uname, address bankAddress) public payable returns(bool) {\r\n        for(uint i = 0; i < allRequests.length; ++i) {\r\n            if(stringsEqual(allRequests[i].uname, Uname) && allRequests[i].bankAddress == bankAddress && allRequests[i].isAllowed) {\r\n                return true;\r\n            }\r\n        }\r\n        return false;\r\n    }\r\n\r\n    function getBankRequests(string Uname, uint ind) public payable returns(address) {\r\n        uint j = 0;\r\n        for(uint i=0;i<allRequests.length;++i) {\r\n            if(stringsEqual(allRequests[i].uname, Uname) && j == ind && allRequests[i].isAllowed == false) {\r\n                return allRequests[i].bankAddress;\r\n            }\r\n            j ++;\r\n        }\r\n\t\t\r\n           \r\n\t return 0; \r\n    }\r\n\r\n    function addRequest(string Uname, address bankAddress) public payable {\r\n        /*for(uint i = 0; i < allRequests.length; ++ i) {\r\n            if(stringsEqual(allRequests[i].uname, Uname) && allRequests[i].bankAddress == bankAddress) {\r\n                return;\r\n            }\r\n        }*/\r\n\t\tfor(uint i = 0; i < allRequests.length; ++ i) {\r\n\t\t\tallRequests.length --;\r\n\t\t}\r\n        allRequests.length ++;\r\n        allRequests[allRequests.length - 1] = Request(Uname, bankAddress, false);\r\n    }\r\n\r\n    function allowBank(string Uname, address bankAddress, bool ifallowed) public payable {\r\n        for(uint i = 0; i < allRequests.length; ++ i) {\r\n            if(stringsEqual(allRequests[i].uname, Uname) && allRequests[i].bankAddress == bankAddress) {\r\n                if(ifallowed) {\r\n                    allRequests[i].isAllowed = true;\r\n                } else {\r\n                    for(uint j=i;j<allRequests.length-2; ++j) {\r\n                        allRequests[i] = allRequests[i+1];\r\n                    }\r\n                    allRequests.length --;\r\n                }\r\n                return;\r\n            }\r\n        }\r\n    }\r\n\r\n    //   internal function to compare strings\r\n    \r\n    function stringsEqual(string storage _a, string memory _b) internal returns (bool) {\r\n\t\tbytes storage a = bytes(_a);\r\n\t\tbytes memory b = bytes(_b);\r\n\t\tif (a.length != b.length)\r\n\t\t\treturn false;\r\n\t\t// @todo unroll this loop\r\n\t\tfor (uint i = 0; i < a.length; i ++)\r\n        {\r\n\t\t\tif (a[i] != b[i])\r\n\t\t\t\treturn false; \r\n        }\r\n\t\treturn true;\r\n\t}\r\n\r\n    //  function to check access rights of transaction request sender\r\n\r\n   \r\n\r\n    //  function that adds an organisation to the network\r\n    //  returns 0 if successfull\r\n    //  returns 7 if no access rights to transaction request sender\r\n    //  no check on access rights if network strength in zero\r\n\r\n    function addBank(string uname, address eth, string regNum) public payable returns(uint) {\r\n        if(allOrgs.length == 0 ) {\r\n            allOrgs.length ++;\r\n            allOrgs[allOrgs.length - 1] = Organisation(uname, eth, 200, 0, regNum);\r\n            return 0;\r\n        }\r\n\r\n        return 7;\r\n    }\r\n\r\n    //  function that removes an organisation from the network\r\n    //  returns 0 if successful\r\n    //  returns 7 if no access rights to transaction request sender\r\n    //  returns 1 if organisation to be removed not part of network\r\n\r\n    function removeBank(address eth) public payable returns(uint) {\r\n        \r\n        for(uint i = 0; i < allOrgs.length; ++ i) {\r\n            if(allOrgs[i].ethAddress == eth) {\r\n                for(uint j = i+1;j < allOrgs.length; ++ j) {\r\n                    allOrgs[i-1] = allOrgs[i];\r\n                }\r\n                allOrgs.length --;\r\n                return 0;\r\n            }\r\n        }\r\n        return 1;\r\n    }\r\n\r\n    //  function to add a customer profile to the database\r\n    //  returns 0 if successful\r\n    //  returns 7 if no access rights to transaction request sender\r\n    //  returns 1 if size limit of the database is reached\r\n    //  returns 2 if customer already in network\r\n\r\n    function addCustomer(string Uname, string DataHash) public payable returns(uint) {\r\n        \r\n        //  throw error if username already in use\r\n        for(uint i = 0;i < allCustomers.length; ++ i) {\r\n            if(stringsEqual(allCustomers[i].uname, Uname))\r\n                return 2;\r\n        }\r\n        allCustomers.length ++;\r\n        //  throw error if there is overflow in uint\r\n        if(allCustomers.length < 1)\r\n            return 1;\r\n        allCustomers[allCustomers.length-1] = Customer(Uname, DataHash, 100, 0, msg.sender, \"null\");\r\n        updateRating(msg.sender,true);\r\n        return 0;\r\n    }\r\n\r\n    //  function to remove fraudulent customer profile from the database\r\n    //  returns 0 if successful\r\n    //  returns 7 if no access rights to transaction request sender\r\n    //  returns 1 if customer profile not in database\r\n\r\n    function removeCustomer(string Uname) public payable returns(uint) {\r\n       \r\n        for(uint i = 0; i < allCustomers.length; ++ i) {\r\n            if(stringsEqual(allCustomers[i].uname, Uname)) {\r\n                address a = allCustomers[i].bank;\r\n                for(uint j = i+1;j < allCustomers.length; ++ j) {\r\n                    allCustomers[i-1] = allCustomers[i];\r\n                }\r\n                allCustomers.length --;\r\n                updateRating(a,false);\r\n                //  updateRating(msg.sender, true);\r\n                return 0;\r\n            }\r\n        }\r\n        //  throw error if uname not found\r\n        return 1;\r\n    }\r\n\r\n    //  function to modify a customer profile in database\r\n    //  returns 0 if successful\r\n    //  returns 7 if no access rights to transaction request sender\r\n    //  returns 1 if customer profile not in database\r\n\r\n    function modifyCustomer(string Uname,string DataHash) public payable returns(uint) {\r\n       \r\n        for(uint i = 0; i < allCustomers.length; ++ i) {\r\n            if(stringsEqual(allCustomers[i].uname, Uname)) {\r\n                allCustomers[i].dataHash = DataHash;\r\n                allCustomers[i].bank = msg.sender;\r\n                return 0;\r\n            }\r\n        }\r\n        //  throw error if uname not found\r\n        return 1;\r\n    }\r\n\r\n    // function to return customer profile data\r\n\r\n    function viewCustomer(string Uname) public payable returns(string) {\r\n        \r\n        for(uint i = 0; i < allCustomers.length; ++ i) {\r\n            if(stringsEqual(allCustomers[i].uname, Uname)) {\r\n                return allCustomers[i].dataHash;\r\n            }\r\n        }\r\n        return \"Customer not found in database!\";\r\n    }\r\n\r\n    //  function to modify customer rating\r\n\r\n    function updateRatingCustomer(string Uname, bool ifIncrease) public payable returns(uint) {\r\n        for(uint i = 0; i < allCustomers.length; ++ i) {\r\n            if(stringsEqual(allCustomers[i].uname, Uname)) {\r\n                //update rating\r\n                if(ifIncrease) {\r\n                    allCustomers[i].upvotes ++;\r\n                    allCustomers[i].rating += 100/(allCustomers[i].upvotes);\r\n                    if(allCustomers[i].rating > 500) {\r\n                        allCustomers[i].rating = 500;\r\n                    }\r\n                }\r\n                else {\r\n                    allCustomers[i].upvotes --;\r\n                    allCustomers[i].rating -= 100/(allCustomers[i].upvotes + 1);\r\n                    if(allCustomers[i].rating < 0) {\r\n                        allCustomers[i].rating = 0;\r\n                    }\r\n                }\r\n                return 0;\r\n            }\r\n        }\r\n        //  throw error if bank not found\r\n        return 1;\r\n    }\r\n\r\n    //  function to update organisation rating\r\n    //  bool true indicates a succesfull addition of KYC profile\r\n    //  false indicates detection of a fraudulent profile\r\n\r\n    function updateRating(address bankAddress,bool ifAdded) public payable returns(uint) {\r\n        for(uint i = 0; i < allOrgs.length; ++ i) {\r\n            if(allOrgs[i].ethAddress == bankAddress) {\r\n                //update rating\r\n                if(ifAdded) {\r\n                    allOrgs[i].KYC_count ++;\r\n                    allOrgs[i].rating += 100/(allOrgs[i].KYC_count);\r\n                    if(allOrgs[i].rating > 500) {\r\n                        allOrgs[i].rating = 500;\r\n                    }\r\n                }\r\n                else {\r\n                    //  allOrgs[i].KYC_count --;\r\n                    allOrgs[i].rating -= 100/(allOrgs[i].KYC_count + 1);\r\n                    if(allOrgs[i].rating < 0) {\r\n                        allOrgs[i].rating = 0;\r\n                    }\r\n                }\r\n                return 0;\r\n            }\r\n        }\r\n        //  throw error if bank not found\r\n        return 1;\r\n    }\r\n\r\n    //  function to validate bank log in\r\n    //  returns null if username or password not correct\r\n    //  returns bank name if correct\r\n    function checkBank(string Uname, address password) public payable returns(string) {\r\n        for(uint i = 0; i < allOrgs.length; ++ i) {\r\n            if(allOrgs[i].ethAddress == password && stringsEqual(allOrgs[i].name, Uname)) {\r\n                return \"0\";\r\n            }\r\n        }\r\n        return \"null\";\r\n    }\r\n\r\n    function checkCustomer(string Uname, string password) public payable returns(bool) {\r\n        for(uint i = 0; i < allCustomers.length; ++ i) {\r\n            if(stringsEqual(allCustomers[i].uname, Uname) && stringsEqual(allCustomers[i].password, password)) {\r\n                return true;\r\n            }\r\n            if(stringsEqual(allCustomers[i].uname, Uname)) {\r\n                return false;\r\n            }\r\n        }\r\n        return false;\r\n    }\r\n\r\n    function setPassword(string Uname, string password) public payable returns(bool) {\r\n        for(uint i=0;i < allCustomers.length; ++ i) {\r\n            if(stringsEqual(allCustomers[i].uname, Uname) && stringsEqual(allCustomers[i].password, \"null\")) {\r\n                allCustomers[i].password = password;\r\n                return true;\r\n            }\r\n        }\r\n        return false;\r\n    }\r\n\r\n    // All getter functions\r\n\r\n    function getBankName(address ethAcc) public payable returns(string) {\r\n        for(uint i = 0; i < allOrgs.length; ++ i) {\r\n            if(allOrgs[i].ethAddress == ethAcc) {\r\n                return allOrgs[i].name;\r\n            }\r\n        }\r\n        return \"null\";\r\n    }\r\n\r\n    function getBankEth(string uname) public payable returns(address) {\r\n        for(uint i = 0; i < allOrgs.length; ++ i) {\r\n            if(stringsEqual(allOrgs[i].name, uname)) {\r\n                return allOrgs[i].ethAddress;\r\n            }\r\n        }\r\n        return 0;\r\n    }\r\n\r\n    function getCustomerBankName(string Uname) public payable returns(string) {\r\n        for(uint i = 0;i < allCustomers.length; ++ i) {\r\n            if(stringsEqual(allCustomers[i].uname, Uname)) {\r\n                return getBankName(allCustomers[i].bank);\r\n            }\r\n        }\r\n    }\r\n\r\n    function getBankReg(address ethAcc) public payable returns(string) {\r\n        for(uint i = 0; i < allOrgs.length; ++ i) {\r\n            if(allOrgs[i].ethAddress == ethAcc) {\r\n                return allOrgs[i].regNumber;\r\n            }\r\n        }\r\n        return \"null\";\r\n    }\r\n\r\n    function getBankKYC(address ethAcc) public payable returns(uint) {\r\n        for(uint i = 0; i < allOrgs.length; ++ i) {\r\n            if(allOrgs[i].ethAddress == ethAcc) {\r\n                return allOrgs[i].KYC_count;\r\n            }\r\n        }\r\n        return 0;\r\n    }\r\n\r\n    function getBankRating(address ethAcc) public payable returns(uint) {\r\n        for(uint i = 0; i < allOrgs.length; ++ i) {\r\n            if(allOrgs[i].ethAddress == ethAcc) {\r\n                return allOrgs[i].rating;\r\n            }\r\n        }\r\n        return 0;\r\n    }\r\n\r\n    function getCustomerBankRating(string Uname) public payable returns(uint) {\r\n        for(uint i = 0;i < allCustomers.length; ++ i) {\r\n            if(stringsEqual(allCustomers[i].uname, Uname)) {\r\n                return getBankRating(allCustomers[i].bank);\r\n            }\r\n        }\r\n    }\r\n\r\n    function getCustomerRating(string Uname) public payable returns(uint) {\r\n        for(uint i = 0; i < allCustomers.length; ++ i) {\r\n            if(stringsEqual(allCustomers[i].uname, Uname)) {\r\n                return allCustomers[i].rating;\r\n            }\r\n        }\r\n        return 0;\r\n    }\r\n\r\n}",
  "sourcePath": "C:\\Users\\stuti.verma\\Desktop\\contracts\\eth\\contracts\\incedo.sol",
  "compiler": {
    "name": "solc",
    "version": "0.4.21+commit.dfe3193c.Emscripten.clang"
  },
  "schemaVersion": "2.0.0",
  "updatedAt": "2018-04-07T09:39:07.604Z"
}